:10088800C0F9A4B0999282F880908880C6C0868EFC
:02089800BF7F20
:10080000EF24FB60111460151460192403701BD2CF
:10081000A7C2A6C2A522D2A7C2A6D2A522D2A7D27B
:0B082000A6C2A522D2A7D2A6D2A52214
:10085100AE077F06120800AF057401A807088002E1
:0E086100C333D8FCF5807F071208008E80227A
:04086F007F607EEA3E
:10087300EF1FAC0670011E4C70F6EF1FAC06700143
:050883001E4C70F6227E
:0A08A600D2A7C2A6D2A5E4F5802275
:10082B00E4FB12086FE4FAEA90088893FFEBFD7C77
:10083B000012085112086F12086F12086F0ABA10D3
:05084B00E60BBB08DD17
:010850002285
:0808B0001208A612082B80FBC0
:0300000002089A59
:0C089A00787FE4F6D8FD7581070208B0F5
:00000001FF
