:0A08850040792430191202780010A7
:10080000E4F508E50875F00A84750900F50AE508BD
:1008100075F00A84AFF0750B008F0C7F327E0012EA
:10082000085B75B0017485250AF58274083509F5F1
:1008300083E493F5A07F327E0012085B75B00274EA
:1008400085250CF5827408350BF583E493F5A00536
:0B08500008E508B43CADE4F50880A802
:10085B00D3EF9400EE940040147D6E7C00ED1D7080
:0D086B00011CED4C70F7EF1F70E61E80E3DE
:01087800225D
:030000000208797A
:0C087900787FE4F6D8FD75810C020800C1
:00000001FF
