:1009E600C0F9A4B0999282F8809040792430191207
:0409F6000278001073
:1009AF00071680828486888A8C070F8183858789C2
:0B09BF008B8D07082459231804062024
:10096200E4FD7F8E1209FAE4F51D7416251DF8E6E2
:10097200FF7408251DF8E6FD1209FA051DC3E51DE1
:0D0982006480948740E47D807F8E0209FA36
:10098F00E4F51D740F251DF8E6FF12092E740825D6
:0F099F001DF8A607051DC3E51D6480948740E47D
:0109AE002226
:10080000E50AC4540F9009E693FDE4FF1209CB7F7B
:10081000647E00120A38E50A540F9009E693FD7FC2
:10082000011209CB7F647E00120A387DBF7F02125D
:1008300009CB7F647E00120A38E509C4540F900981
:10084000E693FD7F031209CB7F647E00120A38E530
:1008500009540F9009E693FD7F041209CB7F647E53
:1008600000120A387DBF7F051209CB7F647E00121B
:100870000A38E508C4540F9009E693FD7F06120973
:10088000CB7F647E00120A38E508540F9009E69386
:10089000FD7F071209CB7F647E00120A387FFF02BA
:0208A0000A212B
:0B0A2D0012096212098F12080080F805
:100A0E00E4FEC297EF1392A3EFC313FFD2970EBE6D
:020A1E0008F0DE
:010A200022B3
:1009FA00C29300C29700D29300120A0EAF05120AE0
:040A0A000EC2932263
:10092E00E4FDC29300C29700D29300120A0EE4FFB8
:10093E00C297EDC313FD30A303430580D2970FBFBB
:10094E0008EEC29300C29700D29700C2A300D2A3B2
:03095E0000AF05E2
:010961002273
:0B0A3800EF1FAC0670011E4C70F62290
:1009CB0090E00074FFF07401A807088002C333D8CD
:0B09DB00FC90C000F090E000EDF02266
:0C0A210090C00074FFF090E000EFF022A5
:030000000208A251
:0C08A200787FE4F6D8FD75811D0208E99E
:1008AE00020A2DE493A3F8E493A34003F68001F229
:1008BE0008DFF48029E493A3F85407240CC8C3334B
:1008CE00C4540F4420C8834004F456800146F6DF1A
:1008DE00E4800B01020408102040809009AFE47EF2
:1008EE00019360BCA3FF543F30E509541FFEE4930F
:1008FE00A360010ECF54C025E060A840B8E493A3D6
:10090E00FAE493A3F8E493A3C8C582C8CAC583CA00
:10091E00F0A3C8C582C8CAC583CADFE9DEE780BEB8
:0109CA00002C
:00000001FF
