:100A8800C0F9A4B0999282F880908880C6C0868EFA
:020A9800BF7F1E
:090AE200010800010900010A00ED
:10098E00EF24FB60111460151460192403701BD240
:10099E00A7C2A6C2A522D2A7C2A6D2A522D2A7D2EC
:0B09AE00A6C2A522D2A7D2A6D2A52285
:100AAB007F0512098EE4F5801F12098E7580FF22D7
:100A060075F00A84E5F0900A8893FD120A407FF497
:020A16007E015F
:0B0A1800EF1FAC0670011E4C70F622B0
:100A400090E00074FFF07401A807088002C333D857
:0B0A5000FC90C000F090E000EDF022F0
:1009E4008F0B8D0C120ABB7FA0120962120A9AAFF8
:1009F4000B120962120A9AAF0C120962120A9A02C5
:020A04000AD610
:0209B9008F0BA2
:1009BB00120ABB7FA0120962120A9AAF0B120962CC
:1009CB00120A9A120ABB7FA1120962120A9A120A20
:0809DB00238F0C120AD6AF0CA9
:0109E30022F1
:1008F9007F011209B98F087F031209B98F097F0592
:100909001209B98F0A0508050905097403250AF5AD
:100919000AE508D3940A4003E4F508E509D39414D9
:100929004003E4F509E50AD3941E4003E4F50AAD52
:10093900087F011209E47FE87E03120A18AD097FD6
:10094900031209E47FE87E03120A18AD0A7F051233
:0909590009E47FE87E03020A189C
:10088C00E50875F00A84900A8893FDE4FF120A11BA
:10089C00E5087F01120A06900A98E493FD7F021284
:1008AC000A11E50975F00A84900A8893FD7F0312FA
:1008BC000A11E5097F04120A06900A98E493FD7F59
:1008CC0005120A11E50A75F00A84900A8893FD7FD7
:1008DC0006120A11E50A75F00A84E5F0900A88936D
:0D08EC00FD7F07120A407FF47E01020A180A
:100A7200120AAB90800074FFF090A000E4F012081C
:060A8200F912088C80FB54
:040ACA00D2A07F0532
:080ACE0000AE071FEE70F922D3
:0F0ABB00D2A1120ACAC2A17F05120ACEC2A0227E
:0C0AD600C2A1120ACAD2A17F05020ACEFA
:100A5B00C2A0A20092A17F05120ACE120ACAC2A09E
:070A6B00D2A17F05020ACEB3
:100A9A00120ACAA2A19201C2A07F05120ACEA2011D
:010AAA002229
:02096200AD07DF
:10096400E4FCC2A07F05120ACEED30E704D2A180D8
:1009740002C2A17F05120ACED2A0ED25E0FD7F05BB
:09098400120ACE0CBC08DBC2A073
:01098D002247
:100A2300E4FC120ACAED25E0FD30A103430501C22F
:0C0A3300A07F05120ACE0CBC08E8AF053D
:010A3F002294
:03000000020800F3
:0C080000787FE4F6D8FD758120020847DF
:10080C00020A72E493A3F8E493A34003F68001F286
:10081C0008DFF48029E493A3F85407240CC8C333ED
:10082C00C4540F4420C8834004F456800146F6DFBC
:10083C00E4800B0102040810204080900AE2E47E60
:10084C00019360BCA3FF543F30E509541FFEE493B1
:10085C00A360010ECF54C025E060A840B8E493A378
:10086C00FAE493A3F8E493A3C8C582C8CAC583CAA3
:10087C00F0A3C8C582C8CAC583CADFE9DEE780BE5B
:010AEB00000A
:00000001FF
