:0608F000010800010900EF
:1008DA00EF24FB600A04700DD2A7C2A6C2A522D2D9
:0608EA00A7C2A6D2A52260
:1008BB007F051208DAE4F5801F1208DA7580FF75E0
:0F08CB008901758C3C758AAFD2A9D2AFD28C222D
:03000B0002088C5C
:10088C00C0E0C0F0C0D0758C3C758AAF0508050976
:10089C00E50875F00A84E5F07004B280F508E50906
:0F08AC00B46405B287750900D0D0D0F0D0E03227
:0508F7001208BB80FEA9
:03000000020800F3
:0C080000787FE4F6D8FD758109020847F6
:10080C000208F7E493A3F8E493A34003F68001F203
:10081C0008DFF48029E493A3F85407240CC8C333ED
:10082C00C4540F4420C8834004F456800146F6DFBC
:10083C00E4800B01020408102040809008F0E47E54
:10084C00019360BCA3FF543F30E509541FFEE493B1
:10085C00A360010ECF54C025E060A840B8E493A378
:10086C00FAE493A3F8E493A3C8C582C8CAC583CAA3
:10087C00F0A3C8C582C8CAC583CADFE9DEE780BE5B
:0108F6000001
:00000001FF
