:100800000F011502160217661803170215021601CA
:100810001502100215000F01150216021702170328
:100820001803190215021866170119021603170397
:100830001600170319021B021B701A031A01190272
:1008400019031A031B021A0D19031700186618035F
:1008500019021A02190C180D1703160111021103BF
:1008600010030F0C100215001F011A01186619035E
:100870001A011B021B031B031B0C1A0D1903170083
:100880001F011A01186619011A0110021003100342
:100890001A0C180D170116000F0115021602177019
:1008A0001803170215031503166616031602160120
:1008B0001503100210011101116610010F0C1A022C
:1008C00019021603160318661803180217011603F7
:0408D000190000000B
:0609DE00010800010A00FF
:03000B000209D512
:0909D500758CD8758AEF150A3201
:1009C300EF75F003A4FFAEF0EF1F70011E144E701D
:0109D300F72C
:0109D4002200
:0309E500DFFE2210
:10096000E5A0541F44A0F5A053890F438901758C5D
:10097000D8758AEFD2AFD2A9D28CE508900800933F
:10098000F50B7009F5087FE81209E580EDE50BB479
:10099000FF0B05087F641209E5C28C80DDAF0805F6
:1009A00008EF90080093F509AF080508EF93F50AE2
:1009B000D28CE50A6009B286AF091209C380F3C27E
:0309C0008C80B771
:030000000208D41F
:0C08D400787FE4F6D8FD75810B02091B4B
:1008E000020960E493A3F8E493A34003F68001F2C5
:1008F00008DFF48029E493A3F85407240CC8C33319
:10090000C4540F4420C8834004F456800146F6DFE7
:10091000E4800B01020408102040809009DEE47E90
:10092000019360BCA3FF543F30E509541FFEE493DC
:10093000A360010ECF54C025E060A840B8E493A3A3
:10094000FAE493A3F8E493A3C8C582C8CAC583CACE
:10095000F0A3C8C582C8CAC583CADFE9DEE780BE86
:0109E4000012
:00000001FF
