:100B2800C0F9A4B0999282F880908880C6C0868E59
:020B3800BF7F7D
:100B1500010B00010A00010900010800010D000197
:020B25000CFFC3
:100A830075F00A8493FF1D120AAD7F587E02120A85
:0F0A9300A2900B38E41D93FF120AAD7F587E022C
:0B0AA200EF1FAC0670011E4C70F62226
:070A11005FF50CF580E4FF26
:100A1800EE7038EF603224FB601314601914601F05
:100A280024037027E5A0541F4480F5A022E5A054B4
:100A38001F44A0F5A022E5A0541F44C0F5A022E55C
:0C0A4800A0541F44E0F5A02253A01F2280
:100AAD00AC077F067E00120A18AF057401A807086F
:100ABD008002C333D8FCF5807F077E00120A188CA4
:020ACD00802285
:10098200E50B75F00A84E5F0900B287D07120A99B1
:10099200E50B120A83E50A75F00A84E5F0900B284C
:1009A200120A98E50A120A83E50975F00A84E5F04D
:1009B200900B28120A98E50975F00A8493FF1D121C
:0909C2000AAD7F587E02020AA270
:100B3A00758921758C3C758AAFD2A9D2AFD28C2225
:03000B00020A5492
:100A5400C0E0C0D0758C3C758AAF0508E508B414B5
:100A640005750800050BE50BB43C0F750B00050A72
:0F0A7400E50AB43C05750A000509D0D0D0E03280
:100AE900758921758DFD758BFDD28E759850E4F54C
:060AF9008ED2ACD2AF2248
:03002300020B5A73
:090B5A0030980585990DC298320E
:080B4A0075F00A84E5F04FFF8D
:080B52008F993099FDC2992230
:10088C00E50D605254F02450601C241070487F0415
:10089C007E00120A18E50DF40444F0F4FFE50C4454
:1008AC000F120A11802DE50975F00A84C454F0FF6B
:1008BC00E509120B4AE50A75F00A84C454F0FFE509
:1008CC000A120B4AE50B75F00A84C454F0FFE50BD1
:0708DC00120B4AE4F50D22A6
:1009350020B22312098220B21D20B205120982803D
:10094500F87F047E00120A18E50CF40444BFFFE5A5
:100955000C4440120A1120B32312098220B31D2032
:10096500B30512098280F87F047E00120A18E50C8F
:0D097500F404447FFFE50C4480120A1122B7
:1009CB007F047E00120A18E4FD74FEA8050880025D
:1009DB00C333D8FCF50CF5807F607EEA120AA20DBA
:1009EB00BD09E6E4FD74FEA805088002C333D8FCFC
:1009FB00F4F50CF5807F607EEA120AA20DBD09E5C5
:060A0B00E4FFFE020A18E0
:1008E3007F077E00120A18E4F580FD7F067E001262
:1008F3000A1874FEA805088002C333D8FCF4F580F7
:100903007F607EEA120AA20DBD09E0E4FD7F067E48
:1009130000120A1874FEA805088002C333D8FCF538
:10092300807F607EEA120AA20DBD09E1E4FFFE02A8
:020933000A18A0
:100AFF007F057E00120A18E4F5801F120A18850C74
:060B0F0080E4FF020A1859
:100ACF00120AFF1209CB1208E3120B3A120AE912AB
:0A0ADF00088C12098212093580F517
:03000000020800F3
:0C080000787FE4F6D8FD75810D020847F2
:10080C00020ACFE493A3F8E493A34003F68001F229
:10081C0008DFF48029E493A3F85407240CC8C333ED
:10082C00C4540F4420C8834004F456800146F6DFBC
:10083C00E4800B0102040810204080900B15E47E2C
:10084C00019360BCA3FF543F30E509541FFEE493B1
:10085C00A360010ECF54C025E060A840B8E493A378
:10086C00FAE493A3F8E493A3C8C582C8CAC583CAA3
:10087C00F0A3C8C582C8CAC583CADFE9DEE780BE5B
:010B270000CD
:00000001FF
