:100AEE00C0F9A4B0999282F880908880C6C0868E94
:020AFE00BF7FB8
:0C0B2000010A00010900010B000108009F
:10092700900AEE93FD7F01120A7D7FF47E01120982
:1009370061900AFEE493FD7F02120A7D7FF47E0137
:100947001209617DFF7F03120A7D7FF47E01120980
:0A095700617F04120A7D7FF47E0127
:0B096100EF1FAC0670011E4C70F62268
:0D0A700075F00A84E5F0900AEE93FD7F0713
:100A7D0090E00074FFF07401A807088002C333D81A
:0B0A8D00FC90C000F090E000EDF022B3
:10096C00900AFEE493FDE4FF12095AE509120927E7
:10097C00E50A75F06484900AEE93FD7F0512095A1E
:10098C00E50A75F06484E5F075F00A84900AEE933C
:10099C00FD7F0612095AE50A120A707FF47E0102E5
:0209AC000961DF
:1009AE00900AFEE493FDE4FF12095AE50B120927A3
:1009BE00E50875F06484900AEE93FD7F0512095ADE
:1009CE00E50875F06484E5F075F00A84900AEE93FC
:1009DE00FD7F0612095AE508120A707FF47E0102A5
:0209EE0009619D
:100A4700120B117F901209F0120B007F011209F0AF
:100A5700120B00120B39120B117F911209F0120BB6
:090A670000120ABA8F0A020B39D1
:1008DA00120A47E50AD394C8400A90800074FEF0D1
:1008EA0075090122E50AD39496400A90800074FCA7
:1008FA00F075090222E50AD39464400A90800074D4
:10090A00F0F075090322E50AD3943290800040077B
:0D091A0074C0F075090422E4F0750905228F
:100A98008F0C8D0D120B117FA01209F0120B00AFF5
:100AA8000C1209F0120B00AF0D1209F0120B000224
:020AB8000B39F8
:020A1C008F0C3D
:100A1E00120B117FA01209F0120B00AF0C1209F08D
:100A2E00120B00120B117FA11209F0120B00120A09
:080A3E00BA8F0D120B39AF0D48
:010A4600228D
:10088C0020B3277F647E0012096120B31DAD097F60
:10089C0001120A987FE87E03120961AD0A7F0212E9
:1008AC000A9820B30512096C80F820B2207F647E70
:1008BC000012096120B2167F01120A1C8F0B7F02F5
:0E08CC00120A1C8F0820B2051209AE80F82215
:0B0B45001208DA12096C12088C80F50F
:040B2D00D2A07F05CE
:080B310000AE071FEE70F9226F
:0F0B1100D2A1120B2DC2A17F05120B31C2A0225F
:0C0B3900C2A1120B2DD2A17F05020B31CE
:100AD700C2A0A20092A17F05120B31120B2DC2A05A
:070AE700D2A17F05020B31D3
:100B0000120B2DA2A19201C2A07F05120B31A201EE
:010B100022C2
:0209F000AD0751
:1009F200E4FCC2A07F05120B31ED30E704D2A180E6
:100A020002C2A17F05120B31D2A0ED25E0FD7F05C8
:090A1200120B310CBC08DBC2A080
:010A1B0022B8
:100ABA00E4FC120B2DED25E0FD30A103430501C234
:0C0ACA00A07F05120B310CBC08E8AF0542
:010AD60022FD
:03000000020800F3
:0C080000787FE4F6D8FD758120020847DF
:10080C00020B45E493A3F8E493A34003F68001F2B2
:10081C0008DFF48029E493A3F85407240CC8C333ED
:10082C00C4540F4420C8834004F456800146F6DFBC
:10083C00E4800B0102040810204080900B20E47E21
:10084C00019360BCA3FF543F30E509541FFEE493B1
:10085C00A360010ECF54C025E060A840B8E493A378
:10086C00FAE493A3F8E493A3C8C582C8CAC583CAA3
:10087C00F0A3C8C582C8CAC583CADFE9DEE780BE5B
:010B2C0000C8
:00000001FF
