:100A2900C0F9A4B0999282F880908880C6C0868E59
:020A3900BF7F7D
:1009FE00010B00010800010900010D00010E0001AC
:050A0E000A00010C00CC
:0C09E700900A2993FD1209CC7FF47E01D8
:0B09F300EF1FAC0670011E4C70F622D6
:1009CC0090E00074FFF07401A807088002C333D8CC
:0B09DC00FC90C000F090E000EDF02265
:10099600AB05EF900A2993FDE4FF1209EC1209EF6B
:1009A600EB75F00A847F061209E7EB75F00A84E519
:1009B600F07F071209E77DFFE4FF1209CC7F0612DC
:0609C60009CC0F0209CC70
:100A3B00758901758CFC758A17D2A9D2AFD28C221D
:03000B0002088C5C
:10088C00C0E0C083C082C0D075D000C000C0077566
:10089C008CFC758A17E50E700890800074E7F08068
:1008AC0047050BE50BD395085014AF0A7401A80744
:1008BC00088002C333D8FCF4908000F0802AE50B4A
:1008CC00D3940A500890800074FFF0801BAF0A7418
:1008DC0001A807088002C333D8FCF4908000F0759F
:1008EC000B00E50C70020509D007D000D0D0D082E7
:0508FC00D083D0E032C2
:10090100E50964057045F509E50D700F0508E50871
:10091100640B703775080A750D0122E50D640170CD
:100921002A1508E508F47023F508F50DE50EB40164
:100931000B050AE50AB40813E4F50A22E50EB40230
:0C0941000A150AE50AB4FF03750A072234
:10094D0020B31F7F647E001209F320B31520B30579
:10095D00750C0180F8E4F50C050EE50EB403037576
:10096D000E0120B0237F647E001209F320B0192000
:10097D00B013750C01E50A04FFE50875F00AA4FD36
:09098D0012099680EAE4F50C223F
:100A140090A00074FFF0E4F090E00074FFF090C048
:050A240000F0020A3B96
:0B0A4B00120A1412090112094D80F874
:03000000020800F3
:0C080000787FE4F6D8FD75810E020847F1
:10080C00020A4BE493A3F8E493A34003F68001F2AD
:10081C0008DFF48029E493A3F85407240CC8C333ED
:10082C00C4540F4420C8834004F456800146F6DFBC
:10083C00E4800B01020408102040809009FEE47E45
:10084C00019360BCA3FF543F30E509541FFEE493B1
:10085C00A360010ECF54C025E060A840B8E493A378
:10086C00FAE493A3F8E493A3C8C582C8CAC583CAA3
:10087C00F0A3C8C582C8CAC583CADFE9DEE780BE5B
:010A130000E2
:00000001FF
