:100A4500C0F9A4B0999282F880908880C6C0868E3D
:020A5500BF7F61
:030A7C000108006E
:0D0A6700AE071FEE70FAAE071FEE70FA2208
:100A1A00EF24FB60111460151460192403701BD2B3
:100A2A00A7C2A6C2A522D2A7C2A6D2A522D2A7D25F
:0B0A3A00A6C2A522D2A7D2A6D2A522F8
:1009BE00E508900A4593FFE4FDFC1209FC7F5012F6
:1009CE000A67E50893FF0D1209FC7F50120A67E5CE
:1009DE000893FF0D1209FC7F50120A67E50893FF7A
:0E09EE000D1209FC7F50120A67E50893FF0DF9
:1009FC00AE077F06120A1AAF057401A80708800219
:0E0A0C00C333D8FCF5807F07120A1A8E8022B1
:100A57007F05120A1AE4F5801F120A1A7580FF2211
:10080000C2B0D2B3D2B2D2B1D2B4D2B5D2C2D2C4B3
:1008100020C40830C4FDE4F508801F20C20830C29F
:10082000FD750801801420B50830B5FD75080280FB
:100830000920B40930B4FD7508031209BEC2B1D253
:10084000B3D2B2D2B0D2B4D2B5D2C2D2C420C408CC
:1008500030C4FD750804801F20C20830C2FD750831
:1008600005801420B50830B5FD750806800920B450
:100870000930B4FD7508071209BEC2B2D2B3D2B0B6
:10088000D2B1D2B4D2B5D2C2D2C420C40830C4FDD1
:10089000750808801F20C20830C2FD750809801441
:1008A00020B50820B5FD75080A800920B40930B4C8
:1008B000FD75080B1209BEC2B2D2B3D2B0D2B1D20A
:1008C000B4D2B5D2C2D2C420C40830C4FD75080861
:1008D000801F20C20830C2FD750809801420B508A9
:1008E00020B5FD75080A800920B40930B4FD7508EB
:1008F0000B1209BEC2B3D2B2D2B0D2B1D2B4D2B509
:10090000D2C2D2C420C40830C4FD75080C801F2098
:10091000C20830C2FD75080D801420B50820B5FD51
:1009200075080E800920B40930B4FD75080F12094E
:02093000BE22E5
:080A7400120A5712080080FB72
:03000000020932C0
:0C093200787FE4F6D8FD75810802097991
:10093E00020A74E493A3F8E493A34003F68001F251
:10094E0008DFF48029E493A3F85407240CC8C333BA
:10095E00C4540F4420C8834004F456800146F6DF89
:10096E00E4800B0102040810204080900A7CE47E93
:10097E00019360BCA3FF543F30E509541FFEE4937E
:10098E00A360010ECF54C025E060A840B8E493A345
:10099E00FAE493A3F8E493A3C8C582C8CAC583CA70
:1009AE00F0A3C8C582C8CAC583CADFE9DEE780BE28
:010A7F000076
:00000001FF
