:0B0891007F607EEA12089C7F607EEA18
:10089C00EF1FAC0670011E4C70F6EF1FAC0670011A
:0508AC001E4C70F62255
:10086600EF24FB60111460151460192403701BD269
:10087600A7C2A6C2A522D2A7C2A6D2A522D2A7D215
:0B088600A6C2A522D2A7D2A6D2A522AE
:100800007F04120866E4FDE4F5801208917580FF0C
:100810001208910DBD03F07D0174FFA80508800248
:10082000C333D8FCF5801208980DBD09EC7F051282
:100830000866758010120891E4F5807F041208663E
:100840007D0174FFA805088002C333D8FCF4F5804D
:100850001208980DBD09EB7F0512086675804012DD
:050860000891E4F580A1
:010865002270
:0A08BD00D2A7C2A6D2A5E4F580225E
:0808C7001208BD12080080FBBD
:030000000208B142
:0C08B100787FE4F6D8FD7581070208C7C7
:00000001FF
