:0B0AA500EF1FAC0670011E4C70F62223
:100A310090E00074FFF07401A807088002C333D866
:0B0A4100FC90C000F090E000EDF022FF
:0C0A8D0090C00074FFF090E000EFF02239
:100A6600C0F9A4B0999282F8809040792430191286
:040A760002780010F2
:0B0A9900020A000002080000010C002F
:100A4C00758CFF758AFF758C3C758AAF758916D2CB
:0A0A5C00A9D2ABD2AFD28CD28E2209
:03000B00020AB036
:030AB000050C3200
:03001B00020A10C6
:100A1000C0E0C0D0758C3C758AAF050CE50CB414F1
:100A20000B750800F509750C00750C00D0D0D0E0EE
:010A30003293
:100800007D8EE4FF120A317F647E00120AA57DFF0F
:100810007F01120A317F647E00120AA57DFF7F02EC
:10082000120A317F647E00120AA5D3E509940FE510
:100830000894274024AE08AF097C277D101209BB1D
:1008400074662FF582740A3EF583E493FD7F0312EC
:100850000A317F647E00120AA5D3E50994E7E50812
:100860009403402BAE08AF097C037DE81209BB7CE2
:10087000007D0A1209BB74662DF582740A3CF5836B
:10088000E493FD7F04120A317F647E00120AA5D32F
:10089000E5099463E5089400402BAE08AF097C009D
:1008A0007D641209BB7C007D0A1209BB74662DF5BC
:1008B00082740A3CF583E493FD7F05120A317F645C
:1008C0007E00120AA5D3E5099409E5089400402B9F
:1008D000AE08AF097C007D0A1209BB7C007D0A12BC
:1008E00009BB74662DF582740A3CF583E493FD7FA1
:1008F00006120A317F647E00120AA5D3E50994002E
:10090000E50894004024AE08AF097C007D0A120976
:10091000BB74662DF582740A3CF583E493FD7F0772
:0F092000120A317F647E00120AA57FFF020A8D42
:100A7A0090800074FFF090A000E4F0120A4C120873
:030A8A000080FBEE
:0300000002092FC3
:0C092F00787FE4F6D8FD75810C02097693
:1009BB00BC000BBE0029EF8DF084FFADF022E4CC20
:1009CB00F875F008EF2FFFEE33FEEC33FCEE9DECE9
:1009DB00984005FCEE9DFE0FD5F0E9E4CEFD22ED2F
:1009EB00F8F5F0EE8420D21CFEADF075F008EF2F79
:1009FB00FFED33FD4007985006D5F0F222C398FD6A
:050A0B000FD5F0EA2206
:10093B00020A7AE493A3F8E493A34003F68001F24E
:10094B0008DFF48029E493A3F85407240CC8C333BD
:10095B00C4540F4420C8834004F456800146F6DF8C
:10096B00E4800B0102040810204080900A99E47E79
:10097B00019360BCA3FF543F30E509541FFEE49381
:10098B00A360010ECF54C025E060A840B8E493A348
:10099B00FAE493A3F8E493A3C8C582C8CAC583CA73
:1009AB00F0A3C8C582C8CAC583CADFE9DEE780BE2B
:010AA4000051
:00000001FF
