:100DA500C0F9A4B0999282F8809040792430191244
:040DB50002780010B0
:040DEC00020B0000F6
:100B3200AE0BAF0C7C007D0A120ACF74A52DF58294
:100B4200740D3CF583E493FD7F07120D597F647E9B
:100B520000120DE1AE0BAF0C7C007D64120ACF7E59
:100B6200007F0ACFCDCFCECCCE120ACF74AF2FF5F5
:100B720082740D3EF583E493FD7F06120D597F6466
:100B82007E00120DE1AE0BAF0C7C007D64120ACF29
:100B920074A52FF582740D3EF583E493FD7F051253
:100BA2000D597F647E00120DE17DFF7F04120D5905
:100BB2007F647E00120DE17DFF7F03120D597F6479
:100BC2007E00120DE17DFF7F02120D597F647E00CF
:100BD200120DE17DFF7F01120D597F647E00120D1F
:100BE200E17DFFE4FF120D597F647E00120DE17F6B
:040BF200FF020DD51C
:100D8E008E098F0AE50A150AAE09700215094E6022
:070D9E0005120B3280EE226A
:100BF600120D147FCC120D3B7F44120D3B7FE87E15
:100C060003120D8E120D147FCC120D3B7FBE120DFA
:100C16003B120D748F08120D74750B008F0CE50CCA
:100C2600F50BE508F50CE50B54F87055E50BC4F823
:100C360054F0C868F50BE50CC4540F48F50CAE0B20
:100C4600FF7C007D0A120ABD8E0B8F0CE508540F3F
:100C5600FCE4120A08E4FBFA7920783F1208F8C08F
:100C660004C005C006C007AC0BAD0CE4120A03D0E5
:100C760003D002D001D000120807120A3C8E0B8F57
:010C86000C61
:010C8700224A
:0D0DC800901F40E4F0120BF6120B3280F881
:040DB9007F327E0007
:0B0DBD00EF1FAC0670011E4C70F62208
:020D3B00AD0702
:100D3D00E4FBC294ED139294120DB9D294EDC3134A
:0C0D4D00FD0BBB08ED7F327E00020DBDE7
:100D7400E4FBC294EDC313FDD29430940343058085
:090D8400120DB90BBB08EBAF0521
:010D8D002243
:100D1400C200D2947F787E00120DBDC2947F507EB3
:100D240000120DBDD2947F647E00120DBDA2949278
:060D340000120DB9A2003F
:010D3A002296
:0B0DE100EF1FAC0670011E4C70F622E4
:100D590090E00074FFF07401A807088002C333D83B
:0B0D6900FC90C000F090E000EDF022D4
:0C0DD50090C00074FFF090E000EFF022EE
:10080000020AA8E86480F8E933E83360110460F074
:10081000ED33EC337009E8FCE9FDEAFEEBFF22045E
:1008200060DED3EB9FEA9EE99DE8C2E78CF0C2F759
:1008300095F0400CE8CCF8E9CDF9EACEFAEBCFFB25
:10084000120A7385D0F05804700320D5B3E8047001
:10085000075002B2D5020AB292D5EC0460F7E4CC9C
:10086000C0E0C398F8603B94186008400DD0E0FBEE
:10087000020A8AE4FBFAC9FC8028E830E406E4C9ED
:10088000FBE4CAFCE830E305E4C9CACBFCE8540742
:100890006010F8C3E913F9EA13FAEB13FBEC13FC4D
:1008A000D8F130F52FC3E49CFCEF9BFFEE9AFEEDF0
:1008B00099FDD0E0FBEF4E4D4C701222DB03020A93
:1008C000AFEC2CFCEF33FFEE33FEED33FDED30E704
:1008D000EB020A8AEF2BFFEE3AFEED39FDD0E0FB8A
:1008E00050130BBB0003020AB2ED13FDEE13FEEF33
:0808F00013FFEC13FC020A8A5D
:1008F800EC4D6011E8497017ED33EC3304600DE4FA
:10090800FCFFFEFD22E933E8330470F8020AA8125E
:100918000A7358046009E4CC24815006285009025F
:100928000AB2284003020AAFC0E0EB4A7044B9801B
:1009380006D0E0FB020A9EEF4E701CBD8008EBFF5C
:10094800EAFEE9FD80EBE98DF0A4FEE5F00209E19D
:10095800E9CDF9EAFEEBFFEF89F0A4FCE5F0CE89DA
:10096800F0A42EFFE435F0CD89F0A42DFEE435F097
:100978008067EF4E7005BD80D780C3EF8BF0A4ACC5
:10098800F0EE8BF0A42CFCE435F0F8EF8AF0A42C00
:10099800E5F038FCE433CB8DF0A42CFCE5F03BF813
:1009A800EE8AF0A42CFCE5F038F8E433CF89F0A403
:1009B8002CFCE5F038CF3400CE89F0A42FFFE5F009
:1009C8003EFEE433C98DF0A42EFEE5F039CD8AF061
:1009D800A42FFFE5F03EFEE43DFD33D0E0FB5007D9
:1009E8000BBB000F020AB2EC2CFCEF33FFEE33FE18
:0609F800ED33FD020A8A46
:1009FE0075F020800E75F010800575F0087D007E74
:100A0E00007F003392D530D503120B24EC33401007
:100A1E00EF33FFEE33FEED33FDEC33FCD5F0ED227C
:0E0A2E00E5F0247EA2D513CC92E7CDCEFF22B8
:100A3C00EDD2E7CD33EC3392D524814006E4FFFEB2
:100A4C00FDFC22FCE4CFCECDCC24E0501174FF8011
:100A5C00EDC3CC13CCCD13CDCE13CECF13CF0470AE
:070A6C00F030D5DE020B247F
:100A7300E9D2E7C933E833F892D5EDD2E7CD33ECC9
:070A830033FC5002B2D52242
:100A8A00EC30E7100FBF000C0EBE00080DBD0004CD
:100A9A000BEB6014A2D5EB13FCED92E7FD2274FF79
:100AAA00FCFDFEFF22E480F8A2D574FF13FC7D80D2
:030ABA00E480EFE6
:03000000020C8867
:0C0C8800787FE4F6D8FD758120020CCFC7
:100ABD00EF8DF0A4A8F0CF8CF0A428CE8DF0A42E4D
:020ACD00FE2207
:100ACF00BC000BBE0029EF8DF084FFADF022E4CC0B
:100ADF00F875F008EF2FFFEE33FEEC33FCEE9DECD4
:100AEF00984005FCEE9DFE0FD5F0E9E4CEFD22ED1A
:100AFF00F8F5F0EE8420D21CFEADF075F008EF2F64
:100B0F00FFED33FD4007985006D5F0F222C398FD54
:050B1F000FD5F0EA22F1
:0E0B2400C3E49FFFE49EFEE49DFDE49CFC22E2
:100C9400020DC8E493A3F8E493A34003F68001F2A1
:100CA40008DFF48029E493A3F85407240CC8C33361
:100CB400C4540F4420C8834004F456800146F6DF30
:100CC400E4800B0102040810204080900DECE47EC7
:100CD400019360BCA3FF543F30E509541FFEE49325
:100CE400A360010ECF54C025E060A840B8E493A3EC
:100CF400FAE493A3F8E493A3C8C582C8CAC583CA17
:100D0400F0A3C8C582C8CAC583CADFE9DEE780BECE
:010DF0000002
:00000001FF
