:09093D00010900010800010A0093
:1008F300EF24FB600A04700DD2A7C2A6C2A522D2C0
:06090300A7C2A6D2A52246
:0B092700EF1FAC0670011E4C70F622A2
:0E091900758901758CFF758A9BD2A9D2AF2219
:03000B000208CF19
:1008CF00C0E0C0D0758CFF758A9B0509E509B50896
:1008DF0004D280800AE509B46405C280750900D08E
:0408EF00D0D0E03253
:10088C0020B03F7F647E0012092720B035E50A14A2
:10089C00601614601B14602024037023C280750A38
:1008AC0001D28C75080A8017750832750A02800F00
:1008BC0075085A750A038007D280C28CE4F50A3099
:0308CC00B0FD225A
:100909007F051208F3E4F5801F1208F37580FF22B2
:0B09320012090912091912088C80FB41
:03000000020800F3
:0C080000787FE4F6D8FD75810A020847F5
:10080C00020932E493A3F8E493A34003F68001F2C7
:10081C0008DFF48029E493A3F85407240CC8C333ED
:10082C00C4540F4420C8834004F456800146F6DFBC
:10083C00E4800B010204081020408090093DE47E06
:10084C00019360BCA3FF543F30E509541FFEE493B1
:10085C00A360010ECF54C025E060A840B8E493A378
:10086C00FAE493A3F8E493A3C8C582C8CAC583CAA3
:10087C00F0A3C8C582C8CAC583CADFE9DEE780BE5B
:0109460000B0
:00000001FF
