:1009E200C0F9A4B0999282F880908880C6C0868EA1
:0209F200BF7FC5
:040A240002080000C4
:0A09CD00E493FD1209B27FF47E01ED
:0B09D700EF1FAC0670011E4C70F622F2
:1009B20090E00074FFF07401A807088002C333D8E6
:0B09C200FC90C000F090E000EDF0227F
:10088C00E509B4E70FE508B4030A9009F1E493FD18
:10089C00E4FF805BAE08AF097C007D641209117423
:1008AC00E22FF58274093EF5837F051209CDAE085F
:1008BC00AF097C007D641209117E007F0ACFCDCF79
:1008CC00CECCCE12091174E22FF58274093EF58359
:1008DC007F061209CDAE08AF097C007D0A12091102
:1008EC0074E22DF58274093CF583E493FD7F0712C5
:0308FC0009D022FE
:060A1D0000007F21DFFE56
:010A230022B0
:1009F400E4FED290120A1DC290120A1D0EBE08F225
:010A040022CF
:10096600E4FDFC53890FF58BF58D1209F4D28E3018
:100976009103308FFAC28E208F29AF8DAD07EDAD72
:100986008BFCEDAE04FF7C007D0A1209117C007D14
:10099600111208FF7D64120911EF2403F509E43EE4
:0B09A600F50822C28F7508037509E7F1
:0109B1002223
:0E0A0500AB07AF031BEF600512088C80F522D3
:0A0A13001209667F0A120A0580F638
:03000000020800F3
:0C080000787FE4F6D8FD758109020847F6
:1008FF00EF8DF0A4A8F0CF8CF0A428CE8DF0A42E0D
:02090F00FE22C6
:10091100BC000BBE0029EF8DF084FFADF022E4CCCA
:10092100F875F008EF2FFFEE33FEEC33FCEE9DEC93
:10093100984005FCEE9DFE0FD5F0E9E4CEFD22EDD9
:10094100F8F5F0EE8420D21CFEADF075F008EF2F23
:10095100FFED33FD4007985006D5F0F222C398FD14
:050961000FD5F0EA22B1
:10080C00020A13E493A3F8E493A34003F68001F2E5
:10081C0008DFF48029E493A3F85407240CC8C333ED
:10082C00C4540F4420C8834004F456800146F6DFBC
:10083C00E4800B0102040810204080900A24E47E1E
:10084C00019360BCA3FF543F30E509541FFEE493B1
:10085C00A360010ECF54C025E060A840B8E493A378
:10086C00FAE493A3F8E493A3C8C582C8CAC583CAA3
:10087C00F0A3C8C582C8CAC583CADFE9DEE780BE5B
:010A280000CD
:00000001FF
