:10094900C0F9A4B0999282F880908880C6C0868E3A
:02095900BF7F5E
:0309740001080176
:0B093300E493FF0D1208FC7F327E00F1
:0B093E00EF1FAC0670011E4C70F6228B
:0F095B008F09AF091509EF600512088C80F4228F
:1008D100EF24FB60111460151460192403701BD2FE
:1008E100A7C2A6C2A522D2A7C2A6D2A522D2A7D2AA
:0B08F100A6C2A522D2A7D2A6D2A52243
:1008FC00AE077F061208D1AF057401A80708800265
:0E090C00C333D8FCF5807F071208D18E8022FD
:10088C0090094BE493FFE4FD1209379009491209D2
:10089C0033A31209339009511209339009591209E3
:1008AC0033120933E50875F00A84900949120934AA
:1008BC00E50875F00A84E5F093FF0D1208FC7F3211
:0508CC007E0002093E60
:0A096A00D2A7C2A6D2A5E4F58022B0
:10091A0012096A12088C0508E508D3940C4003757D
:09092A0008017F6412095B80EAF8
:03000000020800F3
:0C080000787FE4F6D8FD758109020847F6
:10080C0002091AE493A3F8E493A34003F68001F2DF
:10081C0008DFF48029E493A3F85407240CC8C333ED
:10082C00C4540F4420C8834004F456800146F6DFBC
:10083C00E4800B0102040810204080900974E47ECF
:10084C00019360BCA3FF543F30E509541FFEE493B1
:10085C00A360010ECF54C025E060A840B8E493A378
:10086C00FAE493A3F8E493A3C8C582C8CAC583CAA3
:10087C00F0A3C8C582C8CAC583CADFE9DEE780BE5B
:01097700007F
:00000001FF
