:10084400EF24FB601314601914601F24037023E564
:10085400A0541F4480F5A022E5A0541F44A0F5A095
:1008640022E5A0541F44C0F5A022E5A0541F44E093
:03087400F5A022CA
:07089B00AE071FEE70FA2208
:1008000020B00E20B0097F6412089BC2808002D203
:100810008020B10E20B1097F6412089BC281800242
:10082000D28120B20E20B2097F6412089BC282805E
:1008300002D28220B30D20B3087F6412089BC283CA
:0408400022D283221B
:100877007F05120844E4F5801F1208447580FF22A3
:0808930012087712080080FB37
:030000000208876C
:0C088700787FE4F6D8FD75810702089325
:00000001FF
