:03093200010800B9
:1008E5007F041208BAC2801208A1D2807F607EEA16
:0308F5000208A551
:10088C007F607EEA1208A57F607EEA1208A57F6071
:09089C007EEA1208A57F607EEAE5
:1008A500EF1FAC0670011E4C70F6EF1FAC06700111
:0508B5001E4C70F6224C
:1008BA00EF24FB60111460151460192403701BD215
:1008CA00A7C2A6C2A522D2A7C2A6D2A522D2A7D2C1
:0B08DA00A6C2A522D2A7D2A6D2A5225A
:100909007F051208BAE4F5801F1208BA7580FF2224
:07092700D288D2A8D2AF2252
:0300030002092EC1
:04092E007508013215
:1008F800E5086401700AC28712088C12088CD28736
:0109080022CC
:0E0919001209091209271208E51208F880F8E1
:03000000020800F3
:0C080000787FE4F6D8FD758108020847F7
:10080C00020919E493A3F8E493A34003F68001F2E0
:10081C0008DFF48029E493A3F85407240CC8C333ED
:10082C00C4540F4420C8834004F456800146F6DFBC
:10083C00E4800B0102040810204080900932E47E11
:10084C00019360BCA3FF543F30E509541FFEE493B1
:10085C00A360010ECF54C025E060A840B8E493A378
:10086C00FAE493A3F8E493A3C8C582C8CAC583CAA3
:10087C00F0A3C8C582C8CAC583CADFE9DEE780BE5B
:0109350000C1
:00000001FF
